{
  "_format": "hh-sol-artifact-1",
  "contractName": "AlchemonNft",
  "sourceName": "contracts/AlchemonNFT.sol",
  "abi": [
    {
      "inputs": [],
      "stateMutability": "nonpayable",
      "type": "constructor"
    },
    {
      "anonymous": false,
      "inputs": [
        {
          "indexed": true,
          "internalType": "address",
          "name": "owner",
          "type": "address"
        },
        {
          "indexed": true,
          "internalType": "address",
          "name": "approved",
          "type": "address"
        },
        {
          "indexed": true,
          "internalType": "uint256",
          "name": "tokenId",
          "type": "uint256"
        }
      ],
      "name": "Approval",
      "type": "event"
    },
    {
      "anonymous": false,
      "inputs": [
        {
          "indexed": true,
          "internalType": "address",
          "name": "owner",
          "type": "address"
        },
        {
          "indexed": true,
          "internalType": "address",
          "name": "operator",
          "type": "address"
        },
        {
          "indexed": false,
          "internalType": "bool",
          "name": "approved",
          "type": "bool"
        }
      ],
      "name": "ApprovalForAll",
      "type": "event"
    },
    {
      "anonymous": false,
      "inputs": [
        {
          "indexed": false,
          "internalType": "uint256",
          "name": "_fromTokenId",
          "type": "uint256"
        },
        {
          "indexed": false,
          "internalType": "uint256",
          "name": "_toTokenId",
          "type": "uint256"
        }
      ],
      "name": "BatchMetadataUpdate",
      "type": "event"
    },
    {
      "anonymous": false,
      "inputs": [
        {
          "indexed": false,
          "internalType": "uint256",
          "name": "_tokenId",
          "type": "uint256"
        }
      ],
      "name": "MetadataUpdate",
      "type": "event"
    },
    {
      "anonymous": false,
      "inputs": [
        {
          "indexed": true,
          "internalType": "address",
          "name": "previousOwner",
          "type": "address"
        },
        {
          "indexed": true,
          "internalType": "address",
          "name": "newOwner",
          "type": "address"
        }
      ],
      "name": "OwnershipTransferred",
      "type": "event"
    },
    {
      "anonymous": false,
      "inputs": [
        {
          "indexed": true,
          "internalType": "address",
          "name": "from",
          "type": "address"
        },
        {
          "indexed": true,
          "internalType": "address",
          "name": "to",
          "type": "address"
        },
        {
          "indexed": true,
          "internalType": "uint256",
          "name": "tokenId",
          "type": "uint256"
        }
      ],
      "name": "Transfer",
      "type": "event"
    },
    {
      "inputs": [],
      "name": "PRICE",
      "outputs": [
        {
          "internalType": "uint256",
          "name": "",
          "type": "uint256"
        }
      ],
      "stateMutability": "view",
      "type": "function"
    },
    {
      "inputs": [
        {
          "internalType": "address",
          "name": "to",
          "type": "address"
        },
        {
          "internalType": "uint256",
          "name": "tokenId",
          "type": "uint256"
        }
      ],
      "name": "approve",
      "outputs": [],
      "stateMutability": "nonpayable",
      "type": "function"
    },
    {
      "inputs": [
        {
          "internalType": "address",
          "name": "owner",
          "type": "address"
        }
      ],
      "name": "balanceOf",
      "outputs": [
        {
          "internalType": "uint256",
          "name": "",
          "type": "uint256"
        }
      ],
      "stateMutability": "view",
      "type": "function"
    },
    {
      "inputs": [
        {
          "internalType": "uint256",
          "name": "parent1Id",
          "type": "uint256"
        },
        {
          "internalType": "uint256",
          "name": "parent2Id",
          "type": "uint256"
        }
      ],
      "name": "breed",
      "outputs": [],
      "stateMutability": "nonpayable",
      "type": "function"
    },
    {
      "inputs": [
        {
          "internalType": "uint256",
          "name": "tokenId",
          "type": "uint256"
        },
        {
          "internalType": "uint256",
          "name": "generation",
          "type": "uint256"
        }
      ],
      "name": "generateMetadata",
      "outputs": [
        {
          "internalType": "string",
          "name": "",
          "type": "string"
        }
      ],
      "stateMutability": "pure",
      "type": "function"
    },
    {
      "inputs": [
        {
          "internalType": "uint256",
          "name": "tokenId",
          "type": "uint256"
        }
      ],
      "name": "getApproved",
      "outputs": [
        {
          "internalType": "address",
          "name": "",
          "type": "address"
        }
      ],
      "stateMutability": "view",
      "type": "function"
    },
    {
      "inputs": [
        {
          "internalType": "address",
          "name": "owner",
          "type": "address"
        },
        {
          "internalType": "address",
          "name": "operator",
          "type": "address"
        }
      ],
      "name": "isApprovedForAll",
      "outputs": [
        {
          "internalType": "bool",
          "name": "",
          "type": "bool"
        }
      ],
      "stateMutability": "view",
      "type": "function"
    },
    {
      "inputs": [
        {
          "internalType": "uint256",
          "name": "_count",
          "type": "uint256"
        }
      ],
      "name": "mintGenesis",
      "outputs": [],
      "stateMutability": "payable",
      "type": "function"
    },
    {
      "inputs": [],
      "name": "name",
      "outputs": [
        {
          "internalType": "string",
          "name": "",
          "type": "string"
        }
      ],
      "stateMutability": "view",
      "type": "function"
    },
    {
      "inputs": [],
      "name": "owner",
      "outputs": [
        {
          "internalType": "address",
          "name": "",
          "type": "address"
        }
      ],
      "stateMutability": "view",
      "type": "function"
    },
    {
      "inputs": [
        {
          "internalType": "uint256",
          "name": "tokenId",
          "type": "uint256"
        }
      ],
      "name": "ownerOf",
      "outputs": [
        {
          "internalType": "address",
          "name": "",
          "type": "address"
        }
      ],
      "stateMutability": "view",
      "type": "function"
    },
    {
      "inputs": [],
      "name": "renounceOwnership",
      "outputs": [],
      "stateMutability": "nonpayable",
      "type": "function"
    },
    {
      "inputs": [
        {
          "internalType": "address",
          "name": "from",
          "type": "address"
        },
        {
          "internalType": "address",
          "name": "to",
          "type": "address"
        },
        {
          "internalType": "uint256",
          "name": "tokenId",
          "type": "uint256"
        }
      ],
      "name": "safeTransferFrom",
      "outputs": [],
      "stateMutability": "nonpayable",
      "type": "function"
    },
    {
      "inputs": [
        {
          "internalType": "address",
          "name": "from",
          "type": "address"
        },
        {
          "internalType": "address",
          "name": "to",
          "type": "address"
        },
        {
          "internalType": "uint256",
          "name": "tokenId",
          "type": "uint256"
        },
        {
          "internalType": "bytes",
          "name": "data",
          "type": "bytes"
        }
      ],
      "name": "safeTransferFrom",
      "outputs": [],
      "stateMutability": "nonpayable",
      "type": "function"
    },
    {
      "inputs": [
        {
          "internalType": "address",
          "name": "operator",
          "type": "address"
        },
        {
          "internalType": "bool",
          "name": "approved",
          "type": "bool"
        }
      ],
      "name": "setApprovalForAll",
      "outputs": [],
      "stateMutability": "nonpayable",
      "type": "function"
    },
    {
      "inputs": [
        {
          "internalType": "bytes4",
          "name": "interfaceId",
          "type": "bytes4"
        }
      ],
      "name": "supportsInterface",
      "outputs": [
        {
          "internalType": "bool",
          "name": "",
          "type": "bool"
        }
      ],
      "stateMutability": "view",
      "type": "function"
    },
    {
      "inputs": [],
      "name": "symbol",
      "outputs": [
        {
          "internalType": "string",
          "name": "",
          "type": "string"
        }
      ],
      "stateMutability": "view",
      "type": "function"
    },
    {
      "inputs": [
        {
          "internalType": "uint256",
          "name": "index",
          "type": "uint256"
        }
      ],
      "name": "tokenByIndex",
      "outputs": [
        {
          "internalType": "uint256",
          "name": "",
          "type": "uint256"
        }
      ],
      "stateMutability": "view",
      "type": "function"
    },
    {
      "inputs": [
        {
          "internalType": "address",
          "name": "owner",
          "type": "address"
        },
        {
          "internalType": "uint256",
          "name": "index",
          "type": "uint256"
        }
      ],
      "name": "tokenOfOwnerByIndex",
      "outputs": [
        {
          "internalType": "uint256",
          "name": "",
          "type": "uint256"
        }
      ],
      "stateMutability": "view",
      "type": "function"
    },
    {
      "inputs": [
        {
          "internalType": "uint256",
          "name": "tokenId",
          "type": "uint256"
        }
      ],
      "name": "tokenURI",
      "outputs": [
        {
          "internalType": "string",
          "name": "",
          "type": "string"
        }
      ],
      "stateMutability": "view",
      "type": "function"
    },
    {
      "inputs": [
        {
          "internalType": "address",
          "name": "_owner",
          "type": "address"
        }
      ],
      "name": "tokensOfOwner",
      "outputs": [
        {
          "internalType": "uint256[]",
          "name": "",
          "type": "uint256[]"
        }
      ],
      "stateMutability": "view",
      "type": "function"
    },
    {
      "inputs": [],
      "name": "totalSupply",
      "outputs": [
        {
          "internalType": "uint256",
          "name": "",
          "type": "uint256"
        }
      ],
      "stateMutability": "view",
      "type": "function"
    },
    {
      "inputs": [
        {
          "internalType": "address",
          "name": "from",
          "type": "address"
        },
        {
          "internalType": "address",
          "name": "to",
          "type": "address"
        },
        {
          "internalType": "uint256",
          "name": "tokenId",
          "type": "uint256"
        }
      ],
      "name": "transferFrom",
      "outputs": [],
      "stateMutability": "nonpayable",
      "type": "function"
    },
    {
      "inputs": [
        {
          "internalType": "address",
          "name": "newOwner",
          "type": "address"
        }
      ],
      "name": "transferOwnership",
      "outputs": [],
      "stateMutability": "nonpayable",
      "type": "function"
    },
    {
      "inputs": [],
      "name": "withdraw",
      "outputs": [],
      "stateMutability": "payable",
      "type": "function"
    }
  ],
  "bytecode": "0x60806040523480156200001157600080fd5b506040518060400160405280600881526020017f416c6368656d6f6e0000000000000000000000000000000000000000000000008152506040518060400160405280600481526020017f416c63680000000000000000000000000000000000000000000000000000000081525081600090816200008f919062000412565b508060019081620000a1919062000412565b505050620000c4620000b8620000ca60201b60201c565b620000d260201b60201c565b620004f9565b600033905090565b6000600b60009054906101000a900473ffffffffffffffffffffffffffffffffffffffff16905081600b60006101000a81548173ffffffffffffffffffffffffffffffffffffffff021916908373ffffffffffffffffffffffffffffffffffffffff1602179055508173ffffffffffffffffffffffffffffffffffffffff168173ffffffffffffffffffffffffffffffffffffffff167f8be0079c531659141344cd1fd0a4f28419497f9722a3daafe3b4186f6b6457e060405160405180910390a35050565b600081519050919050565b7f4e487b7100000000000000000000000000000000000000000000000000000000600052604160045260246000fd5b7f4e487b7100000000000000000000000000000000000000000000000000000000600052602260045260246000fd5b600060028204905060018216806200021a57607f821691505b60208210810362000230576200022f620001d2565b5b50919050565b60008190508160005260206000209050919050565b60006020601f8301049050919050565b600082821b905092915050565b6000600883026200029a7fffffffffffffffffffffffffffffffffffffffffffffffffffffffffffffffff826200025b565b620002a686836200025b565b95508019841693508086168417925050509392505050565b6000819050919050565b6000819050919050565b6000620002f3620002ed620002e784620002be565b620002c8565b620002be565b9050919050565b6000819050919050565b6200030f83620002d2565b620003276200031e82620002fa565b84845462000268565b825550505050565b600090565b6200033e6200032f565b6200034b81848462000304565b505050565b5b8181101562000373576200036760008262000334565b60018101905062000351565b5050565b601f821115620003c2576200038c8162000236565b62000397846200024b565b81016020851015620003a7578190505b620003bf620003b6856200024b565b83018262000350565b50505b505050565b600082821c905092915050565b6000620003e760001984600802620003c7565b1980831691505092915050565b6000620004028383620003d4565b9150826002028217905092915050565b6200041d8262000198565b67ffffffffffffffff811115620004395762000438620001a3565b5b62000445825462000201565b6200045282828562000377565b600060209050601f8311600181146200048a576000841562000475578287015190505b620004818582620003f4565b865550620004f1565b601f1984166200049a8662000236565b60005b82811015620004c4578489015182556001820191506020850194506020810190506200049d565b86831015620004e45784890151620004e0601f891682620003d4565b8355505b6001600288020188555050505b505050505050565b614a3e80620005096000396000f3fe6080604052600436106101665760003560e01c806370a08231116100d1578063a22cb4651161008a578063d9ecad7b11610064578063d9ecad7b14610555578063dff632431461057e578063e985e9c51461059a578063f2fde38b146105d757610166565b8063a22cb465146104c6578063b88d4fde146104ef578063c87b56dd1461051857610166565b806370a08231146103b4578063715018a6146103f15780638462151c146104085780638d859f3e146104455780638da5cb5b1461047057806395d89b411461049b57610166565b80632f745c59116101235780632f745c591461028d57806330800991146102ca5780633ccfd60b1461030757806342842e0e146103115780634f6ccce71461033a5780636352211e1461037757610166565b806301ffc9a71461016b57806306fdde03146101a8578063081812fc146101d3578063095ea7b31461021057806318160ddd1461023957806323b872dd14610264575b600080fd5b34801561017757600080fd5b50610192600480360381019061018d9190612b19565b610600565b60405161019f9190612b61565b60405180910390f35b3480156101b457600080fd5b506101bd610612565b6040516101ca9190612c0c565b60405180910390f35b3480156101df57600080fd5b506101fa60048036038101906101f59190612c64565b6106a4565b6040516102079190612cd2565b60405180910390f35b34801561021c57600080fd5b5061023760048036038101906102329190612d19565b6106ea565b005b34801561024557600080fd5b5061024e610801565b60405161025b9190612d68565b60405180910390f35b34801561027057600080fd5b5061028b60048036038101906102869190612d83565b61080e565b005b34801561029957600080fd5b506102b460048036038101906102af9190612d19565b61086e565b6040516102c19190612d68565b60405180910390f35b3480156102d657600080fd5b506102f160048036038101906102ec9190612dd6565b610913565b6040516102fe9190612c0c565b60405180910390f35b61030f6109c3565b005b34801561031d57600080fd5b5061033860048036038101906103339190612d83565b610ac3565b005b34801561034657600080fd5b50610361600480360381019061035c9190612c64565b610ae3565b60405161036e9190612d68565b60405180910390f35b34801561038357600080fd5b5061039e60048036038101906103999190612c64565b610b54565b6040516103ab9190612cd2565b60405180910390f35b3480156103c057600080fd5b506103db60048036038101906103d69190612e16565b610bda565b6040516103e89190612d68565b60405180910390f35b3480156103fd57600080fd5b50610406610c91565b005b34801561041457600080fd5b5061042f600480360381019061042a9190612e16565b610ca5565b60405161043c9190612f01565b60405180910390f35b34801561045157600080fd5b5061045a610d53565b6040516104679190612d68565b60405180910390f35b34801561047c57600080fd5b50610485610d5e565b6040516104929190612cd2565b60405180910390f35b3480156104a757600080fd5b506104b0610d88565b6040516104bd9190612c0c565b60405180910390f35b3480156104d257600080fd5b506104ed60048036038101906104e89190612f4f565b610e1a565b005b3480156104fb57600080fd5b50610516600480360381019061051191906130c4565b610e30565b005b34801561052457600080fd5b5061053f600480360381019061053a9190612c64565b610e92565b60405161054c9190612c0c565b60405180910390f35b34801561056157600080fd5b5061057c60048036038101906105779190612dd6565b610ea4565b005b61059860048036038101906105939190612c64565b610fee565b005b3480156105a657600080fd5b506105c160048036038101906105bc9190613147565b61107c565b6040516105ce9190612b61565b60405180910390f35b3480156105e357600080fd5b506105fe60048036038101906105f99190612e16565b611110565b005b600061060b82611193565b9050919050565b606060008054610621906131b6565b80601f016020809104026020016040519081016040528092919081815260200182805461064d906131b6565b801561069a5780601f1061066f5761010080835404028352916020019161069a565b820191906000526020600020905b81548152906001019060200180831161067d57829003601f168201915b5050505050905090565b60006106af826111f4565b6004600083815260200190815260200160002060009054906101000a900473ffffffffffffffffffffffffffffffffffffffff169050919050565b60006106f582610b54565b90508073ffffffffffffffffffffffffffffffffffffffff168373ffffffffffffffffffffffffffffffffffffffff1603610765576040517f08c379a000000000000000000000000000000000000000000000000000000000815260040161075c90613259565b60405180910390fd5b8073ffffffffffffffffffffffffffffffffffffffff1661078461123f565b73ffffffffffffffffffffffffffffffffffffffff1614806107b357506107b2816107ad61123f565b61107c565b5b6107f2576040517f08c379a00000000000000000000000000000000000000000000000000000000081526004016107e9906132eb565b60405180910390fd5b6107fc8383611247565b505050565b6000600880549050905090565b61081f61081961123f565b82611300565b61085e576040517f08c379a00000000000000000000000000000000000000000000000000000000081526004016108559061337d565b60405180910390fd5b610869838383611395565b505050565b600061087983610bda565b82106108ba576040517f08c379a00000000000000000000000000000000000000000000000000000000081526004016108b19061340f565b60405180910390fd5b600660008473ffffffffffffffffffffffffffffffffffffffff1673ffffffffffffffffffffffffffffffffffffffff168152602001908152602001600020600083815260200190815260200160002054905092915050565b606060006109208461168e565b6109298461168e565b60405160200161093a929190613847565b604051602081830303815290604052905060006109916109598661168e565b6109628461175c565b61096b8761168e565b60405160200161097d93929190613a65565b60405160208183030381529060405261175c565b90506000816040516020016109a69190613b0e565b604051602081830303815290604052905080935050505092915050565b6109cb6118bf565b600047905060008111610a13576040517f08c379a0000000000000000000000000000000000000000000000000000000008152600401610a0a90613b7c565b60405180910390fd5b60003373ffffffffffffffffffffffffffffffffffffffff1682604051610a3990613bcd565b60006040518083038185875af1925050503d8060008114610a76576040519150601f19603f3d011682016040523d82523d6000602084013e610a7b565b606091505b5050905080610abf576040517f08c379a0000000000000000000000000000000000000000000000000000000008152600401610ab690613c2e565b60405180910390fd5b5050565b610ade83838360405180602001604052806000815250610e30565b505050565b6000610aed610801565b8210610b2e576040517f08c379a0000000000000000000000000000000000000000000000000000000008152600401610b2590613cc0565b60405180910390fd5b60088281548110610b4257610b41613ce0565b5b90600052602060002001549050919050565b600080610b608361193d565b9050600073ffffffffffffffffffffffffffffffffffffffff168173ffffffffffffffffffffffffffffffffffffffff1603610bd1576040517f08c379a0000000000000000000000000000000000000000000000000000000008152600401610bc890613d5b565b60405180910390fd5b80915050919050565b60008073ffffffffffffffffffffffffffffffffffffffff168273ffffffffffffffffffffffffffffffffffffffff1603610c4a576040517f08c379a0000000000000000000000000000000000000000000000000000000008152600401610c4190613ded565b60405180910390fd5b600360008373ffffffffffffffffffffffffffffffffffffffff1673ffffffffffffffffffffffffffffffffffffffff168152602001908152602001600020549050919050565b610c996118bf565b610ca3600061197a565b565b60606000610cb283610bda565b905060008167ffffffffffffffff811115610cd057610ccf612f99565b5b604051908082528060200260200182016040528015610cfe5781602001602082028036833780820191505090505b50905060005b82811015610d4857610d16858261086e565b828281518110610d2957610d28613ce0565b5b6020026020010181815250508080610d4090613e3c565b915050610d04565b508092505050919050565b6601c6bf5263400081565b6000600b60009054906101000a900473ffffffffffffffffffffffffffffffffffffffff16905090565b606060018054610d97906131b6565b80601f0160208091040260200160405190810160405280929190818152602001828054610dc3906131b6565b8015610e105780601f10610de557610100808354040283529160200191610e10565b820191906000526020600020905b815481529060010190602001808311610df357829003601f168201915b5050505050905090565b610e2c610e2561123f565b8383611a40565b5050565b610e41610e3b61123f565b83611300565b610e80576040517f08c379a0000000000000000000000000000000000000000000000000000000008152600401610e779061337d565b60405180910390fd5b610e8c84848484611bac565b50505050565b6060610e9d82611c08565b9050919050565b808203610ee6576040517f08c379a0000000000000000000000000000000000000000000000000000000008152600401610edd90613ed0565b60405180910390fd5b3373ffffffffffffffffffffffffffffffffffffffff16610f0683610b54565b73ffffffffffffffffffffffffffffffffffffffff16148015610f5c57503373ffffffffffffffffffffffffffffffffffffffff16610f4482610b54565b73ffffffffffffffffffffffffffffffffffffffff16145b610f9b576040517f08c379a0000000000000000000000000000000000000000000000000000000008152600401610f9290613f3c565b60405180910390fd5b6000818310610fb857600183610fb19190613f5c565b9050610fc8565b600182610fc59190613f5c565b90505b6000610fdd610fd7600c611d1a565b83610913565b9050610fe881611d28565b50505050565b6601c6bf52634000341015611038576040517f08c379a000000000000000000000000000000000000000000000000000000000815260040161102f90614002565b60405180910390fd5b60005b81811015611078576000611059611052600c611d1a565b6000610913565b905061106481611d28565b50808061107090613e3c565b91505061103b565b5050565b6000600560008473ffffffffffffffffffffffffffffffffffffffff1673ffffffffffffffffffffffffffffffffffffffff16815260200190815260200160002060008373ffffffffffffffffffffffffffffffffffffffff1673ffffffffffffffffffffffffffffffffffffffff16815260200190815260200160002060009054906101000a900460ff16905092915050565b6111186118bf565b600073ffffffffffffffffffffffffffffffffffffffff168173ffffffffffffffffffffffffffffffffffffffff1603611187576040517f08c379a000000000000000000000000000000000000000000000000000000000815260040161117e90614094565b60405180910390fd5b6111908161197a565b50565b6000634906490660e01b7bffffffffffffffffffffffffffffffffffffffffffffffffffffffff1916827bffffffffffffffffffffffffffffffffffffffffffffffffffffffff191614806111ed57506111ec82611d58565b5b9050919050565b6111fd81611dd2565b61123c576040517f08c379a000000000000000000000000000000000000000000000000000000000815260040161123390613d5b565b60405180910390fd5b50565b600033905090565b816004600083815260200190815260200160002060006101000a81548173ffffffffffffffffffffffffffffffffffffffff021916908373ffffffffffffffffffffffffffffffffffffffff160217905550808273ffffffffffffffffffffffffffffffffffffffff166112ba83610b54565b73ffffffffffffffffffffffffffffffffffffffff167f8c5be1e5ebec7d5bd14f71427d1e84f3dd0314c0f7b2291e5b200ac8c7c3b92560405160405180910390a45050565b60008061130c83610b54565b90508073ffffffffffffffffffffffffffffffffffffffff168473ffffffffffffffffffffffffffffffffffffffff16148061134e575061134d818561107c565b5b8061138c57508373ffffffffffffffffffffffffffffffffffffffff16611374846106a4565b73ffffffffffffffffffffffffffffffffffffffff16145b91505092915050565b8273ffffffffffffffffffffffffffffffffffffffff166113b582610b54565b73ffffffffffffffffffffffffffffffffffffffff161461140b576040517f08c379a000000000000000000000000000000000000000000000000000000000815260040161140290614126565b60405180910390fd5b600073ffffffffffffffffffffffffffffffffffffffff168273ffffffffffffffffffffffffffffffffffffffff160361147a576040517f08c379a0000000000000000000000000000000000000000000000000000000008152600401611471906141b8565b60405180910390fd5b6114878383836001611e13565b8273ffffffffffffffffffffffffffffffffffffffff166114a782610b54565b73ffffffffffffffffffffffffffffffffffffffff16146114fd576040517f08c379a00000000000000000000000000000000000000000000000000000000081526004016114f490614126565b60405180910390fd5b6004600082815260200190815260200160002060006101000a81549073ffffffffffffffffffffffffffffffffffffffff02191690556001600360008573ffffffffffffffffffffffffffffffffffffffff1673ffffffffffffffffffffffffffffffffffffffff168152602001908152602001600020600082825403925050819055506001600360008473ffffffffffffffffffffffffffffffffffffffff1673ffffffffffffffffffffffffffffffffffffffff16815260200190815260200160002060008282540192505081905550816002600083815260200190815260200160002060006101000a81548173ffffffffffffffffffffffffffffffffffffffff021916908373ffffffffffffffffffffffffffffffffffffffff160217905550808273ffffffffffffffffffffffffffffffffffffffff168473ffffffffffffffffffffffffffffffffffffffff167fddf252ad1be2c89b69c2b068fc378daa952ba7f163c4a11628f55a4df523b3ef60405160405180910390a46116898383836001611e25565b505050565b60606000600161169d84611e2b565b01905060008167ffffffffffffffff8111156116bc576116bb612f99565b5b6040519080825280601f01601f1916602001820160405280156116ee5781602001600182028036833780820191505090505b509050600082602001820190505b600115611751578080600190039150507f3031323334353637383961626364656600000000000000000000000000000000600a86061a8153600a8581611745576117446141d8565b5b049450600085036116fc575b819350505050919050565b6060600082510361177e576040518060200160405280600081525090506118ba565b60006040518060600160405280604081526020016149c960409139905060006003600285516117ad9190613f5c565b6117b79190614207565b60046117c39190614238565b67ffffffffffffffff8111156117dc576117db612f99565b5b6040519080825280601f01601f19166020018201604052801561180e5781602001600182028036833780820191505090505b509050600182016020820185865187015b8082101561187a576003820191508151603f8160121c168501518453600184019350603f81600c1c168501518453600184019350603f8160061c168501518453600184019350603f811685015184536001840193505061181f565b505060038651066001811461189657600281146118a9576118b1565b603d6001830353603d60028303536118b1565b603d60018303535b50505080925050505b919050565b6118c761123f565b73ffffffffffffffffffffffffffffffffffffffff166118e5610d5e565b73ffffffffffffffffffffffffffffffffffffffff161461193b576040517f08c379a0000000000000000000000000000000000000000000000000000000008152600401611932906142c6565b60405180910390fd5b565b60006002600083815260200190815260200160002060009054906101000a900473ffffffffffffffffffffffffffffffffffffffff169050919050565b6000600b60009054906101000a900473ffffffffffffffffffffffffffffffffffffffff16905081600b60006101000a81548173ffffffffffffffffffffffffffffffffffffffff021916908373ffffffffffffffffffffffffffffffffffffffff1602179055508173ffffffffffffffffffffffffffffffffffffffff168173ffffffffffffffffffffffffffffffffffffffff167f8be0079c531659141344cd1fd0a4f28419497f9722a3daafe3b4186f6b6457e060405160405180910390a35050565b8173ffffffffffffffffffffffffffffffffffffffff168373ffffffffffffffffffffffffffffffffffffffff1603611aae576040517f08c379a0000000000000000000000000000000000000000000000000000000008152600401611aa590614332565b60405180910390fd5b80600560008573ffffffffffffffffffffffffffffffffffffffff1673ffffffffffffffffffffffffffffffffffffffff16815260200190815260200160002060008473ffffffffffffffffffffffffffffffffffffffff1673ffffffffffffffffffffffffffffffffffffffff16815260200190815260200160002060006101000a81548160ff0219169083151502179055508173ffffffffffffffffffffffffffffffffffffffff168373ffffffffffffffffffffffffffffffffffffffff167f17307eab39ab6107e8899845ad3d59bd9653f200f220920489ca2b5937696c3183604051611b9f9190612b61565b60405180910390a3505050565b611bb7848484611395565b611bc384848484611f7e565b611c02576040517f08c379a0000000000000000000000000000000000000000000000000000000008152600401611bf9906143c4565b60405180910390fd5b50505050565b6060611c13826111f4565b6000600a60008481526020019081526020016000208054611c33906131b6565b80601f0160208091040260200160405190810160405280929190818152602001828054611c5f906131b6565b8015611cac5780601f10611c8157610100808354040283529160200191611cac565b820191906000526020600020905b815481529060010190602001808311611c8f57829003601f168201915b505050505090506000611cbd612105565b90506000815103611cd2578192505050611d15565b600082511115611d07578082604051602001611cef9291906143e4565b60405160208183030381529060405292505050611d15565b611d108461211c565b925050505b919050565b600081600001549050919050565b6000611d34600c611d1a565b9050611d403382612184565b611d4a81836121a2565b611d54600c612246565b5050565b60007f780e9d63000000000000000000000000000000000000000000000000000000007bffffffffffffffffffffffffffffffffffffffffffffffffffffffff1916827bffffffffffffffffffffffffffffffffffffffffffffffffffffffff19161480611dcb5750611dca8261225c565b5b9050919050565b60008073ffffffffffffffffffffffffffffffffffffffff16611df48361193d565b73ffffffffffffffffffffffffffffffffffffffff1614159050919050565b611e1f8484848461233e565b50505050565b50505050565b600080600090507a184f03e93ff9f4daa797ed6e38ed64bf6a1f0100000000000000008310611e89577a184f03e93ff9f4daa797ed6e38ed64bf6a1f0100000000000000008381611e7f57611e7e6141d8565b5b0492506040810190505b6d04ee2d6d415b85acef81000000008310611ec6576d04ee2d6d415b85acef81000000008381611ebc57611ebb6141d8565b5b0492506020810190505b662386f26fc100008310611ef557662386f26fc100008381611eeb57611eea6141d8565b5b0492506010810190505b6305f5e1008310611f1e576305f5e1008381611f1457611f136141d8565b5b0492506008810190505b6127108310611f43576127108381611f3957611f386141d8565b5b0492506004810190505b60648310611f665760648381611f5c57611f5b6141d8565b5b0492506002810190505b600a8310611f75576001810190505b80915050919050565b6000611f9f8473ffffffffffffffffffffffffffffffffffffffff1661249c565b156120f8578373ffffffffffffffffffffffffffffffffffffffff1663150b7a02611fc861123f565b8786866040518563ffffffff1660e01b8152600401611fea949392919061445d565b6020604051808303816000875af192505050801561202657506040513d601f19601f8201168201806040525081019061202391906144be565b60015b6120a8573d8060008114612056576040519150601f19603f3d011682016040523d82523d6000602084013e61205b565b606091505b5060008151036120a0576040517f08c379a0000000000000000000000000000000000000000000000000000000008152600401612097906143c4565b60405180910390fd5b805181602001fd5b63150b7a0260e01b7bffffffffffffffffffffffffffffffffffffffffffffffffffffffff1916817bffffffffffffffffffffffffffffffffffffffffffffffffffffffff1916149150506120fd565b600190505b949350505050565b606060405180602001604052806000815250905090565b6060612127826111f4565b6000612131612105565b90506000815111612151576040518060200160405280600081525061217c565b8061215b8461168e565b60405160200161216c9291906143e4565b6040516020818303038152906040525b915050919050565b61219e8282604051806020016040528060008152506124bf565b5050565b6121ab82611dd2565b6121ea576040517f08c379a00000000000000000000000000000000000000000000000000000000081526004016121e19061455d565b60405180910390fd5b80600a6000848152602001908152602001600020908161220a9190614729565b507ff8e1a15aba9398e019f0b49df1a4fde98ee17ae345cb5f6b5e2c27f5033e8ce78260405161223a9190612d68565b60405180910390a15050565b6001816000016000828254019250508190555050565b60007f80ac58cd000000000000000000000000000000000000000000000000000000007bffffffffffffffffffffffffffffffffffffffffffffffffffffffff1916827bffffffffffffffffffffffffffffffffffffffffffffffffffffffff1916148061232757507f5b5e139f000000000000000000000000000000000000000000000000000000007bffffffffffffffffffffffffffffffffffffffffffffffffffffffff1916827bffffffffffffffffffffffffffffffffffffffffffffffffffffffff1916145b8061233757506123368261251a565b5b9050919050565b61234a84848484612584565b600181111561238e576040517f08c379a00000000000000000000000000000000000000000000000000000000081526004016123859061486d565b60405180910390fd5b6000829050600073ffffffffffffffffffffffffffffffffffffffff168573ffffffffffffffffffffffffffffffffffffffff16036123d5576123d08161258a565b612414565b8373ffffffffffffffffffffffffffffffffffffffff168573ffffffffffffffffffffffffffffffffffffffff16146124135761241285826125d3565b5b5b600073ffffffffffffffffffffffffffffffffffffffff168473ffffffffffffffffffffffffffffffffffffffff16036124565761245181612740565b612495565b8473ffffffffffffffffffffffffffffffffffffffff168473ffffffffffffffffffffffffffffffffffffffff1614612494576124938482612811565b5b5b5050505050565b6000808273ffffffffffffffffffffffffffffffffffffffff163b119050919050565b6124c98383612890565b6124d66000848484611f7e565b612515576040517f08c379a000000000000000000000000000000000000000000000000000000000815260040161250c906143c4565b60405180910390fd5b505050565b60007f01ffc9a7000000000000000000000000000000000000000000000000000000007bffffffffffffffffffffffffffffffffffffffffffffffffffffffff1916827bffffffffffffffffffffffffffffffffffffffffffffffffffffffff1916149050919050565b50505050565b6008805490506009600083815260200190815260200160002081905550600881908060018154018082558091505060019003906000526020600020016000909190919091505550565b600060016125e084610bda565b6125ea919061488d565b90506000600760008481526020019081526020016000205490508181146126cf576000600660008673ffffffffffffffffffffffffffffffffffffffff1673ffffffffffffffffffffffffffffffffffffffff168152602001908152602001600020600084815260200190815260200160002054905080600660008773ffffffffffffffffffffffffffffffffffffffff1673ffffffffffffffffffffffffffffffffffffffff168152602001908152602001600020600084815260200190815260200160002081905550816007600083815260200190815260200160002081905550505b6007600084815260200190815260200160002060009055600660008573ffffffffffffffffffffffffffffffffffffffff1673ffffffffffffffffffffffffffffffffffffffff16815260200190815260200160002060008381526020019081526020016000206000905550505050565b60006001600880549050612754919061488d565b905060006009600084815260200190815260200160002054905060006008838154811061278457612783613ce0565b5b9060005260206000200154905080600883815481106127a6576127a5613ce0565b5b9060005260206000200181905550816009600083815260200190815260200160002081905550600960008581526020019081526020016000206000905560088054806127f5576127f46148c1565b5b6001900381819060005260206000200160009055905550505050565b600061281c83610bda565b905081600660008573ffffffffffffffffffffffffffffffffffffffff1673ffffffffffffffffffffffffffffffffffffffff168152602001908152602001600020600083815260200190815260200160002081905550806007600084815260200190815260200160002081905550505050565b600073ffffffffffffffffffffffffffffffffffffffff168273ffffffffffffffffffffffffffffffffffffffff16036128ff576040517f08c379a00000000000000000000000000000000000000000000000000000000081526004016128f69061493c565b60405180910390fd5b61290881611dd2565b15612948576040517f08c379a000000000000000000000000000000000000000000000000000000000815260040161293f906149a8565b60405180910390fd5b612956600083836001611e13565b61295f81611dd2565b1561299f576040517f08c379a0000000000000000000000000000000000000000000000000000000008152600401612996906149a8565b60405180910390fd5b6001600360008473ffffffffffffffffffffffffffffffffffffffff1673ffffffffffffffffffffffffffffffffffffffff16815260200190815260200160002060008282540192505081905550816002600083815260200190815260200160002060006101000a81548173ffffffffffffffffffffffffffffffffffffffff021916908373ffffffffffffffffffffffffffffffffffffffff160217905550808273ffffffffffffffffffffffffffffffffffffffff16600073ffffffffffffffffffffffffffffffffffffffff167fddf252ad1be2c89b69c2b068fc378daa952ba7f163c4a11628f55a4df523b3ef60405160405180910390a4612aa9600083836001611e25565b5050565b6000604051905090565b600080fd5b600080fd5b60007fffffffff0000000000000000000000000000000000000000000000000000000082169050919050565b612af681612ac1565b8114612b0157600080fd5b50565b600081359050612b1381612aed565b92915050565b600060208284031215612b2f57612b2e612ab7565b5b6000612b3d84828501612b04565b91505092915050565b60008115159050919050565b612b5b81612b46565b82525050565b6000602082019050612b766000830184612b52565b92915050565b600081519050919050565b600082825260208201905092915050565b60005b83811015612bb6578082015181840152602081019050612b9b565b60008484015250505050565b6000601f19601f8301169050919050565b6000612bde82612b7c565b612be88185612b87565b9350612bf8818560208601612b98565b612c0181612bc2565b840191505092915050565b60006020820190508181036000830152612c268184612bd3565b905092915050565b6000819050919050565b612c4181612c2e565b8114612c4c57600080fd5b50565b600081359050612c5e81612c38565b92915050565b600060208284031215612c7a57612c79612ab7565b5b6000612c8884828501612c4f565b91505092915050565b600073ffffffffffffffffffffffffffffffffffffffff82169050919050565b6000612cbc82612c91565b9050919050565b612ccc81612cb1565b82525050565b6000602082019050612ce76000830184612cc3565b92915050565b612cf681612cb1565b8114612d0157600080fd5b50565b600081359050612d1381612ced565b92915050565b60008060408385031215612d3057612d2f612ab7565b5b6000612d3e85828601612d04565b9250506020612d4f85828601612c4f565b9150509250929050565b612d6281612c2e565b82525050565b6000602082019050612d7d6000830184612d59565b92915050565b600080600060608486031215612d9c57612d9b612ab7565b5b6000612daa86828701612d04565b9350506020612dbb86828701612d04565b9250506040612dcc86828701612c4f565b9150509250925092565b60008060408385031215612ded57612dec612ab7565b5b6000612dfb85828601612c4f565b9250506020612e0c85828601612c4f565b9150509250929050565b600060208284031215612e2c57612e2b612ab7565b5b6000612e3a84828501612d04565b91505092915050565b600081519050919050565b600082825260208201905092915050565b6000819050602082019050919050565b612e7881612c2e565b82525050565b6000612e8a8383612e6f565b60208301905092915050565b6000602082019050919050565b6000612eae82612e43565b612eb88185612e4e565b9350612ec383612e5f565b8060005b83811015612ef4578151612edb8882612e7e565b9750612ee683612e96565b925050600181019050612ec7565b5085935050505092915050565b60006020820190508181036000830152612f1b8184612ea3565b905092915050565b612f2c81612b46565b8114612f3757600080fd5b50565b600081359050612f4981612f23565b92915050565b60008060408385031215612f6657612f65612ab7565b5b6000612f7485828601612d04565b9250506020612f8585828601612f3a565b9150509250929050565b600080fd5b600080fd5b7f4e487b7100000000000000000000000000000000000000000000000000000000600052604160045260246000fd5b612fd182612bc2565b810181811067ffffffffffffffff82111715612ff057612fef612f99565b5b80604052505050565b6000613003612aad565b905061300f8282612fc8565b919050565b600067ffffffffffffffff82111561302f5761302e612f99565b5b61303882612bc2565b9050602081019050919050565b82818337600083830152505050565b600061306761306284613014565b612ff9565b90508281526020810184848401111561308357613082612f94565b5b61308e848285613045565b509392505050565b600082601f8301126130ab576130aa612f8f565b5b81356130bb848260208601613054565b91505092915050565b600080600080608085870312156130de576130dd612ab7565b5b60006130ec87828801612d04565b94505060206130fd87828801612d04565b935050604061310e87828801612c4f565b925050606085013567ffffffffffffffff81111561312f5761312e612abc565b5b61313b87828801613096565b91505092959194509250565b6000806040838503121561315e5761315d612ab7565b5b600061316c85828601612d04565b925050602061317d85828601612d04565b9150509250929050565b7f4e487b7100000000000000000000000000000000000000000000000000000000600052602260045260246000fd5b600060028204905060018216806131ce57607f821691505b6020821081036131e1576131e0613187565b5b50919050565b7f4552433732313a20617070726f76616c20746f2063757272656e74206f776e6560008201527f7200000000000000000000000000000000000000000000000000000000000000602082015250565b6000613243602183612b87565b915061324e826131e7565b604082019050919050565b6000602082019050818103600083015261327281613236565b9050919050565b7f4552433732313a20617070726f76652063616c6c6572206973206e6f7420746f60008201527f6b656e206f776e6572206f7220617070726f76656420666f7220616c6c000000602082015250565b60006132d5603d83612b87565b91506132e082613279565b604082019050919050565b60006020820190508181036000830152613304816132c8565b9050919050565b7f4552433732313a2063616c6c6572206973206e6f7420746f6b656e206f776e6560008201527f72206f7220617070726f76656400000000000000000000000000000000000000602082015250565b6000613367602d83612b87565b91506133728261330b565b604082019050919050565b600060208201905081810360008301526133968161335a565b9050919050565b7f455243373231456e756d657261626c653a206f776e657220696e646578206f7560008201527f74206f6620626f756e6473000000000000000000000000000000000000000000602082015250565b60006133f9602b83612b87565b91506134048261339d565b604082019050919050565b60006020820190508181036000830152613428816133ec565b9050919050565b600081905092915050565b7f3c73766720786d6c6e733d27687474703a2f2f7777772e77332e6f72672f323060008201527f30302f73766727207072657365727665417370656374526174696f3d27784d6960208201527f6e794d696e206d656574272076696577426f783d27302030203335302033353060408201527f273e000000000000000000000000000000000000000000000000000000000000606082015250565b60006134e260628361342f565b91506134ed8261343a565b606282019050919050565b7f3c7374796c653e2e62617365207b2066696c6c3a2077686974653b20666f6e7460008201527f2d66616d696c793a2073657269663b20666f6e742d73697a653a20323570783b60208201527f207d3c2f7374796c653e00000000000000000000000000000000000000000000604082015250565b600061357a604a8361342f565b9150613585826134f8565b604a82019050919050565b7f3c726563742077696474683d273130302527206865696768743d27313030252760008201527f2066696c6c3d27626c756527202f3e0000000000000000000000000000000000602082015250565b60006135ec602f8361342f565b91506135f782613590565b602f82019050919050565b7f3c7465787420783d273530252720793d273430252720636c6173733d2762617360008201527f652720646f6d696e616e742d626173656c696e653d276d6964646c652720746560208201527f78742d616e63686f723d276d6964646c65273e00000000000000000000000000604082015250565b600061368460538361342f565b915061368f82613602565b605382019050919050565b7f3c747370616e20793d273430252720783d27353025273e416c6368656d6f6e2060008201527f2300000000000000000000000000000000000000000000000000000000000000602082015250565b60006136f660218361342f565b91506137018261369a565b602182019050919050565b600061371782612b7c565b613721818561342f565b9350613731818560208601612b98565b80840191505092915050565b7f3c2f747370616e3e000000000000000000000000000000000000000000000000600082015250565b600061377360088361342f565b915061377e8261373d565b600882019050919050565b7f3c747370616e20793d273530252720783d27353025273e47656e65726174696f60008201527f6e20000000000000000000000000000000000000000000000000000000000000602082015250565b60006137e560228361342f565b91506137f082613789565b602282019050919050565b7f3c2f747370616e3e3c2f746578743e3c2f7376673e0000000000000000000000600082015250565b600061383160158361342f565b915061383c826137fb565b601582019050919050565b6000613852826134d5565b915061385d8261356d565b9150613868826135df565b915061387382613677565b915061387e826136e9565b915061388a828561370c565b915061389582613766565b91506138a0826137d8565b91506138ac828461370c565b91506138b782613824565b91508190509392505050565b7f7b226e616d65223a2022416c6368656d6f6e2023000000000000000000000000600082015250565b60006138f960148361342f565b9150613904826138c3565b601482019050919050565b7f222c20226465736372697074696f6e223a2022416e20696e2d67616d65206d6f60008201527f6e73746572222c2022696d616765223a2022646174613a696d6167652f73766760208201527f2b786d6c3b6261736536342c0000000000000000000000000000000000000000604082015250565b6000613991604c8361342f565b915061399c8261390f565b604c82019050919050565b7f222c202261747472696275746573223a205b7b2274726169745f74797065223a60008201527f202247656e65726174696f6e222c202276616c7565223a202200000000000000602082015250565b6000613a0360398361342f565b9150613a0e826139a7565b603982019050919050565b7f227d5d7d00000000000000000000000000000000000000000000000000000000600082015250565b6000613a4f60048361342f565b9150613a5a82613a19565b600482019050919050565b6000613a70826138ec565b9150613a7c828661370c565b9150613a8782613984565b9150613a93828561370c565b9150613a9e826139f6565b9150613aaa828461370c565b9150613ab582613a42565b9150819050949350505050565b7f646174613a6170706c69636174696f6e2f6a736f6e3b6261736536342c000000600082015250565b6000613af8601d8361342f565b9150613b0382613ac2565b601d82019050919050565b6000613b1982613aeb565b9150613b25828461370c565b915081905092915050565b7f4e6f206574686572206c65667420746f20776974686472617700000000000000600082015250565b6000613b66601983612b87565b9150613b7182613b30565b602082019050919050565b60006020820190508181036000830152613b9581613b59565b9050919050565b600081905092915050565b50565b6000613bb7600083613b9c565b9150613bc282613ba7565b600082019050919050565b6000613bd882613baa565b9150819050919050565b7f5472616e73666572206661696c65642e00000000000000000000000000000000600082015250565b6000613c18601083612b87565b9150613c2382613be2565b602082019050919050565b60006020820190508181036000830152613c4781613c0b565b9050919050565b7f455243373231456e756d657261626c653a20676c6f62616c20696e646578206f60008201527f7574206f6620626f756e64730000000000000000000000000000000000000000602082015250565b6000613caa602c83612b87565b9150613cb582613c4e565b604082019050919050565b60006020820190508181036000830152613cd981613c9d565b9050919050565b7f4e487b7100000000000000000000000000000000000000000000000000000000600052603260045260246000fd5b7f4552433732313a20696e76616c696420746f6b656e2049440000000000000000600082015250565b6000613d45601883612b87565b9150613d5082613d0f565b602082019050919050565b60006020820190508181036000830152613d7481613d38565b9050919050565b7f4552433732313a2061646472657373207a65726f206973206e6f74206120766160008201527f6c6964206f776e65720000000000000000000000000000000000000000000000602082015250565b6000613dd7602983612b87565b9150613de282613d7b565b604082019050919050565b60006020820190508181036000830152613e0681613dca565b9050919050565b7f4e487b7100000000000000000000000000000000000000000000000000000000600052601160045260246000fd5b6000613e4782612c2e565b91507fffffffffffffffffffffffffffffffffffffffffffffffffffffffffffffffff8203613e7957613e78613e0d565b5b600182019050919050565b7f506172656e7473206d75737420626520646966666572656e7400000000000000600082015250565b6000613eba601983612b87565b9150613ec582613e84565b602082019050919050565b60006020820190508181036000830152613ee981613ead565b9050919050565b7f53656e64657220646f65736e2774206f776e204e465473000000000000000000600082015250565b6000613f26601783612b87565b9150613f3182613ef0565b602082019050919050565b60006020820190508181036000830152613f5581613f19565b9050919050565b6000613f6782612c2e565b9150613f7283612c2e565b9250828201905080821115613f8a57613f89613e0d565b5b92915050565b7f4e6f7420656e6f75676820657468657220746f2070757263686173652067656e60008201527f65736973204e46542e0000000000000000000000000000000000000000000000602082015250565b6000613fec602983612b87565b9150613ff782613f90565b604082019050919050565b6000602082019050818103600083015261401b81613fdf565b9050919050565b7f4f776e61626c653a206e6577206f776e657220697320746865207a65726f206160008201527f6464726573730000000000000000000000000000000000000000000000000000602082015250565b600061407e602683612b87565b915061408982614022565b604082019050919050565b600060208201905081810360008301526140ad81614071565b9050919050565b7f4552433732313a207472616e736665722066726f6d20696e636f72726563742060008201527f6f776e6572000000000000000000000000000000000000000000000000000000602082015250565b6000614110602583612b87565b915061411b826140b4565b604082019050919050565b6000602082019050818103600083015261413f81614103565b9050919050565b7f4552433732313a207472616e7366657220746f20746865207a65726f2061646460008201527f7265737300000000000000000000000000000000000000000000000000000000602082015250565b60006141a2602483612b87565b91506141ad82614146565b604082019050919050565b600060208201905081810360008301526141d181614195565b9050919050565b7f4e487b7100000000000000000000000000000000000000000000000000000000600052601260045260246000fd5b600061421282612c2e565b915061421d83612c2e565b92508261422d5761422c6141d8565b5b828204905092915050565b600061424382612c2e565b915061424e83612c2e565b925082820261425c81612c2e565b9150828204841483151761427357614272613e0d565b5b5092915050565b7f4f776e61626c653a2063616c6c6572206973206e6f7420746865206f776e6572600082015250565b60006142b0602083612b87565b91506142bb8261427a565b602082019050919050565b600060208201905081810360008301526142df816142a3565b9050919050565b7f4552433732313a20617070726f766520746f2063616c6c657200000000000000600082015250565b600061431c601983612b87565b9150614327826142e6565b602082019050919050565b6000602082019050818103600083015261434b8161430f565b9050919050565b7f4552433732313a207472616e7366657220746f206e6f6e20455243373231526560008201527f63656976657220696d706c656d656e7465720000000000000000000000000000602082015250565b60006143ae603283612b87565b91506143b982614352565b604082019050919050565b600060208201905081810360008301526143dd816143a1565b9050919050565b60006143f0828561370c565b91506143fc828461370c565b91508190509392505050565b600081519050919050565b600082825260208201905092915050565b600061442f82614408565b6144398185614413565b9350614449818560208601612b98565b61445281612bc2565b840191505092915050565b60006080820190506144726000830187612cc3565b61447f6020830186612cc3565b61448c6040830185612d59565b818103606083015261449e8184614424565b905095945050505050565b6000815190506144b881612aed565b92915050565b6000602082840312156144d4576144d3612ab7565b5b60006144e2848285016144a9565b91505092915050565b7f45524337323155524953746f726167653a2055524920736574206f66206e6f6e60008201527f6578697374656e7420746f6b656e000000000000000000000000000000000000602082015250565b6000614547602e83612b87565b9150614552826144eb565b604082019050919050565b600060208201905081810360008301526145768161453a565b9050919050565b60008190508160005260206000209050919050565b60006020601f8301049050919050565b600082821b905092915050565b6000600883026145df7fffffffffffffffffffffffffffffffffffffffffffffffffffffffffffffffff826145a2565b6145e986836145a2565b95508019841693508086168417925050509392505050565b6000819050919050565b600061462661462161461c84612c2e565b614601565b612c2e565b9050919050565b6000819050919050565b6146408361460b565b61465461464c8261462d565b8484546145af565b825550505050565b600090565b61466961465c565b614674818484614637565b505050565b5b818110156146985761468d600082614661565b60018101905061467a565b5050565b601f8211156146dd576146ae8161457d565b6146b784614592565b810160208510156146c6578190505b6146da6146d285614592565b830182614679565b50505b505050565b600082821c905092915050565b6000614700600019846008026146e2565b1980831691505092915050565b600061471983836146ef565b9150826002028217905092915050565b61473282612b7c565b67ffffffffffffffff81111561474b5761474a612f99565b5b61475582546131b6565b61476082828561469c565b600060209050601f8311600181146147935760008415614781578287015190505b61478b858261470d565b8655506147f3565b601f1984166147a18661457d565b60005b828110156147c9578489015182556001820191506020850194506020810190506147a4565b868310156147e657848901516147e2601f8916826146ef565b8355505b6001600288020188555050505b505050505050565b7f455243373231456e756d657261626c653a20636f6e736563757469766520747260008201527f616e7366657273206e6f7420737570706f727465640000000000000000000000602082015250565b6000614857603583612b87565b9150614862826147fb565b604082019050919050565b600060208201905081810360008301526148868161484a565b9050919050565b600061489882612c2e565b91506148a383612c2e565b92508282039050818111156148bb576148ba613e0d565b5b92915050565b7f4e487b7100000000000000000000000000000000000000000000000000000000600052603160045260246000fd5b7f4552433732313a206d696e7420746f20746865207a65726f2061646472657373600082015250565b6000614926602083612b87565b9150614931826148f0565b602082019050919050565b6000602082019050818103600083015261495581614919565b9050919050565b7f4552433732313a20746f6b656e20616c7265616479206d696e74656400000000600082015250565b6000614992601c83612b87565b915061499d8261495c565b602082019050919050565b600060208201905081810360008301526149c181614985565b905091905056fe4142434445464748494a4b4c4d4e4f505152535455565758595a6162636465666768696a6b6c6d6e6f707172737475767778797a303132333435363738392b2fa2646970667358221220c5837e46e504626b1c308ccd17f078b9b15ff74c65087f8314ef658976b2436464736f6c63430008140033",
  "linkReferences": {},
  "deployedLinkReferences": {}
}